:02000000382E98
:1000080070082000A8007108A7007208A6007308ED
:10001800A5007408A4007508A3007608A200770854
:10002800A1007808A00080312700931D2F28931184
:1000380022000C1E26280C128E11200018106300B6
:1000480001002F2822000C168E152100C101C201C3
:10005800C301C40158110B1D4D28323020009500F2
:1000680021005D08133C031D3B285C08883C0318ED
:100078004328083022008E062100DC01DD010B1127
:100088000130C1070030C23DC33DC43DDC0A03193D
:10009800DD0A2000111C282A111018309600F630AD
:1000A80097002100680803195A28282A9D149D1CC6
:1000B8005E285B284508F000F101F035F10D343079
:1000C80070072200E3000130713DE400E501FB25E3
:1000D80022006308860064088700700881007108A0
:1000E800413181002100C50A0A304502031C7D28E0
:1000F800C501E601E701DA010A305A020318962819
:100108005A08F000F101F035F10D34307007840021
:100118000130713D85000008E60701310008E73D20
:10012800DA0A80284608F000F101F035F10D203098
:1001380070072200E3000130713DE4000A30F4004A
:100148000030F50021006608F0006708F10013266A
:10015800220063088600640887007008810071081F
:100168004131810021004608F000F101F035F10D20
:10017800F035F10DA030700786000130713D870021
:1001880081014131810141318101413181014608BB
:10019800F000F101F035F10DF035F10DA0307007E8
:1001A800F9000130713DFA004608F000F101F03520
:1001B800F10D2030700784000130713D8500000882
:1001C800F30001310008F4000C30F2007308F0006D
:1001D8007408F10072080319F528F136F00CFF3E97
:1001E800EF280F30F0050030F105A03070078400CB
:1001F8000030713D85000008F500F601F701F801AF
:100208007508F300F001F101F201790884007A0819
:1002180085000008F00401310008F10401310008EC
:10022800F20401310008F304790886007A0887008F
:1002380070088100710841318100720841318100E4
:100248007308413181004608F000F101F035F10DE5
:10025800F035F10DA0307007F9000130713DFA005A
:100268004608F000F101F035F10D203070078400E8
:100278000130713D85000008F30001310008F400E9
:100288007408F000F1010F30F0050030F105A030DE
:10029800700784000030713D85000008F500F60104
:1002A800F701F8017608F3007508F200F001F10192
:1002B800790884007A0885000008F00401310008F4
:1002C800F10401310008F20401310008F30479084F
:1002D80086007A0887007008810071084131810022
:1002E8007208413181007308413181004608F000ED
:1002F800F101F035F10DF035F10DA0307007F9007E
:100308000130713DFA004608F000F101F035F10DB9
:100318002030700784000130713D85000008F3002B
:1003280001310008F4007308F0007408F100F13698
:10033800F00CF136F00CF136F00CF136F00C0F3011
:10034800F0050030F105A030700784000030713DE1
:1003580085000008F500F601F701F8017708F300B9
:100368007608F2007508F100F001790884007A082F
:1003780085000008F00401310008F104013100088B
:10038800F20401310008F304790886007A0887002E
:100398007008810071084131810072084131810083
:1003A8007308413181004608F000F101F035F10D84
:1003B800F035F10DA0307007F4000130713DF50003
:1003C8004608F000F101F035F10D20307007840087
:1003D8000130713D85000F300005F0000131000843
:1003E800F1000030F105A030700784000030713D45
:1003F80085000008F000F101F201F301740884009F
:10040800750885000008F00401310008F104013185
:100418000008F20401310008F30474088600750826
:1004280087007008810071084131810072084131EC
:100438008100730841318100C60A46080A3A031D43
:10044800282AC6010130E80020002808F000270803
:10045800F1002608F2002508F3002408F400230818
:10046800F5002208F6002108F7002008F800090026
:0E04780055303C008F00AA308F000F10080096
:0E04860055303C008F00AA308F000F14080084
:1004940022005F08053C0318542A10305F02031839
:1004A400542A592A5F08153C031C592A5B2AF00177
:1004B400F72B6008003A031DCD2A62080319632A4A
:1004C4003C229B2A220061083D009000C82A220099
:1004D40061083D009100C82A220061083D00920095
:1004E400C82A220061083D009400C82A220061083D
:1004F4003D009500C82A220061083D00A000C82ADA
:10050400220061083D00A100C82A220061083D00C4
:10051400A200C82A220061083D00A300C82A2200C4
:1005240061083D00A400C82A220061083D00A5001E
:10053400C82A22005F08003A0319642A5F08013AB6
:100544000319692A5F08023A03196E2A5F08043AFC
:100554000319732A5F08053A0319782A5F08103AC9
:1005640003197D2A5F08113A0319822A5F08123A97
:100574000319872A5F08133A03198C2A5F08143A6F
:100584000319912A5F08153A0319962A2200620872
:100594000319CD2A432222006008013A031D642B6B
:1005A40062080319D62A3C22222B22005F083C0051
:1005B40090005F2B22005F083C0091005F2B22001B
:1005C4005F083C0092005F2B22005F083C00930010
:1005D4005F2B22005F083C0094005F2B22005F0821
:1005E4003C0095005F2B22005F083C00A0005F2BBD
:1005F40022005F083C00A1005F2B22005F083C0042
:10060400A2005F2B22005F083C00A4005F2B2200A5
:100614005F083C00A5005F2B22005F083C00A80097
:100624005F2B22005F083C00A9005F2B22005F08BB
:100634003C00AA005F2B22005F083C00AB005F2B4C
:1006440022006108003A0319D72A6108013A031904
:10065400DC2A6108023A0319E12A6108033A031902
:10066400E62A6108043A0319EB2A6108053A0319DA
:10067400F02A6108063A0319F52A6108073A0319B2
:10068400FA2A6108083A0319FF2A6108093A03198A
:10069400042B61080A3A0319092B61080B3A031960
:1006A4000E2B61080C3A0319132B61080D3A031938
:1006B400182B61080E3A03191D2B22006208031936
:1006C400642B4322C82B220060186B2B21000C10D2
:1006D4006D2B21000C14F52B22006018742B2100C3
:1006E4008C10762B21008C14F52B220060187D2BA6
:1006F40021000C117F2B21000C15F52B2200601812
:10070400862B21000C12882B21000C16F52B2200BD
:1007140060188F2B21008C12912B21008C16F52B45
:1007240022006018982B21000E109A2B21000E1421
:10073400F52B22006018A12B21008E10A32B210081
:100744008E14F52B22006018AA2B21000E11AC2B5D
:1007540021000E15F52B22006018B32B21008E11F9
:10076400B52B21008E15F52B22006018BC2B21001F
:100774000E12BE2B21000E16F52B22006018C52B7D
:1007840021008E12C72B21008E16F52B22005F0844
:10079400003A0319652B5F08013A03196E2B5F08B1
:1007A400023A0319772B5F08043A0319802B5F0878
:1007B400053A0319892B5F08103A0319922B5F0835
:1007C400113A03199B2B5F08123A0319A42B5F08F3
:1007D400133A0319AD2B5F08143A0319B62B5F08BB
:0C07E400153A0319BF2BFF30F00008008D
:1007F00022005C08DF005D08E0005E08E1000130D7
:06080000E2004A2208009C
:1008060018302200DC00DD011430DE00F823193038
:100816002200DC000130DD000A30DE00F82308008B
:1008260023009E1690309D002000911E1E2C230052
:080836001908F000172C08005E
:10083E0022004C08C8004D08C9004E08CA004F08D7
:10084E00CB0050082100E900220051082100EA00E7
:10085E00220052082100EB00220053082100EC0078
:10086E00220054082100E200220055082100E30076
:10087E00220056082100E400220057082100E5005E
:10088E00220058082100DE00220059082100DF0056
:10089E0022005A082100E00022005B082100E1003E
:0208AE00080040
:1008B00023009E185D2C0000582C21006F08230097
:0408C0009A00080092
:0C08C40000302000911A0130F000080004
:1008D00023001908F1009D1C6F2C1D121D167108B4
:0408E000F00008001C
:1008E400032468302200CC000430CD000030CE0058
:1008F4000030CF005830D0000430D100EF30D200A7
:100904000030D3006230D4000430D5000030D6006B
:100914000030D700FF30D800FF30D9000030DA00B3
:0A0924000030DB001F24132408003C
:0A092E001D30FD00FD0B992C0800A0
:100938006224700803191F2D210057080319142D6C
:10094800C730ED000030EE005B08ED070318EE0A33
:10095800682421006D0886006E08870070088100F1
:10096800C7308400003085005B0884070318850AB7
:1009780000080D3A031D122DDA015B08F100F1366B
:1009880071085A0203180F2D5A08F200F301F235C4
:10099800F30D01307207F0000030733DF100C730ED
:1009A800700784000030713D85000008F000293090
:1009B800840000308500700884070318850A000841
:1009C800F4007408D900C730720784000030733D02
:1009D80085000008F0002930840000308500700888
:1009E80084070318850A0008F2007208F000F03541
:1009F800F035F035F0357408F0047008D900B130DE
:100A08008600003087005A0886070318870A70088E
:100A18008100DA0AC12CD7010130B000DB0A1F2D92
:100A2800682470082100D90070083A3A031D1F2D68
:080A38000130D700DB010800CA
:100A40003A302100EF00582421002008EF005824FC
:100A500021002708EF0058242100DA010A305A0249
:100A60000318AB2D5A08F000F101F035F10DF03507
:100A7000F10DA030700784000130713D8500000841
:100A8000F50001310008F60001310008F7000131DE
:100A90000008F8007808F000F101F201F301700895
:100AA000EF00582421005A08F000F101F035F10D53
:100AB000F035F10DA030700784000130713D8500E4
:100AC0000008F50001310008F60001310008F700C8
:100AD00001310008F8007708F0007808F100F20111
:100AE000F3017008EF00582421005A08F000F101CA
:100AF000F035F10DF035F10DA030700784000130B4
:100B0000713D85000008F50001310008F600013153
:100B10000008F70001310008F8007608F0007708B7
:100B2000F1007808F200F3017008EF00582421006A
:100B30005A08F000F101F035F10DF035F10DA0305B
:100B4000700784000130713D85000008EF005824D3
:0E0B50002100DA0A2E2D0D30EF005824080087
:100B5E007A30210099000B308C008E110E148E14F9
:100B6E000E1114303D00A40015303C00A4000330DB
:100B7E0023008C0021009D0102309E009F019E17D4
:100B8E00073023008E002A009101143022009800B5
:100B9E002100951115109510151195128B168B17A6
:100BAE00200018139813181698160B1721001114FD
:100BBE0023009E011E159E169D019D169D17083041
:100BCE009B009F1522309B0000309C001E15722446
:100BDE0022008E150C168E110B3021008C00581031
:080BEE00270091158B1508008A
:100BF600833021009D0522006508F000F035F035B0
:100C0600700821009D0497249D149D1C0B2E082E10
:100C16001C08F100F0011B08F0040030F104080084
:100C26002000F801F9011030FC00710DF80DF90DE6
:100C36007408F8027508031C750FF90203182A2EAA
:100C46007408F80775080318750FF9070310F00DF7
:080C5600F10DFC0B182E080043
:100C5E0012001E00F003031D2F2EF103031D2F2E75
:020C6E0008007C
:100C7000F026AF252100D701D901DB01B001C60163
:100C8000C501C101C201C301C401D81058119C247F
:100C90002100300803198C2E7C2E581520001814C2
:100CA00021001D14220098177F3099002A00911707
:100CB0008A2E2000181021001D10220098132A00EF
:100CC00091138A2E3A302100EF0058242100200889
:100CD000EF00582421002308EF00582421002008A9
:100CE000EF00582421002308EF0058240D30210084
:100CF000EF0058248A2E8A2E21003108013A031968
:100D00004D2E3108023A0319592E3108033A0319BE
:100D1000622E7B2E2100B00168080319942EE80191
:0C0D20002025083022008E06472E952E5C
:100DE00099308400863085004730F0000130F100F2
:100DF00029308600003087002F26E03084008630BE
:100E000085001030F0000130F100A0308600003085
:060E100087002F260800F8
:100D32000034003400340034003400340034003411
:100D42000034003400340034003400340034003401
:100D520000340034003400340034003400340034F1
:100D620000340034003400340034003400340034E1
:100D720000340034003400340034003400340034D1
:100D820000340034003400340034003400340034C1
:100D92000034013402340334043405340634073495
:100DA2000834093400340034003400340034003490
:0E0DB20000340A340B340C340D340E340F347C
:100DC00030343134323433343434353436343734E7
:100DD000383439344134423443344434453446346D
:020000040001F9
:04000E002438871FEC
:00000001FF
